:020000040800F2
:1000000040080020450100083D03000835030008B2
:100010003903000811020008F90900080000000077
:100020000000000000000000000000001D050008A6
:100030001502000800000000C503000821060008A2
:100040005F0100085F0100085F0100085F01000810
:100050005F0100085F0100085F0100085F01000800
:100060005F0100085F0100085F0100085F010008F0
:100070005F0100085F0100085F0100085F010008E0
:100080005F0100085F0100085F0100085F010008D0
:100090005F0100085F0100085F0100085F010008C0
:1000A0005F0100085F0100085F0100085F010008B0
:1000B0005F010008890600085F0100085F01000871
:1000C0005F0100085F0100085F0100085F01000890
:1000D0005F01000889070008910700085F01000818
:1000E0005F0100085F0100085F0100085F01000870
:1000F0005F0100085F0100085F0100085F01000860
:100100005F0100085F0100085F0100085F0100084F
:100110005F0100085F0100085F0100085F0100083F
:100120005F0100085F0100085F0100085F0100082F
:10013000DFF80CD000F05AF8004800477D120008A4
:10014000400800200648804706480047FEE7FEE7D3
:10015000FEE7FEE7FEE7FEE7FEE7FEE7FEE7FEE777
:100160002906000831010008D2B201E000F8012B95
:10017000491EFBD270470022F6E710B513460A4627
:1001800004461946FFF7F0FF204610BD30B505467E
:100190002A460B4612F8010B13F8014B08B1A04296
:1001A000F8D01CB1002802D06D1CF1E7284630BD04
:1001B000421C10F8011B0029FBD1801A704730B592
:1001C0000B46014600202022012409E021FA02F515
:1001D0009D4205D303FA02F5491B04FA02F52844AF
:1001E000151EA2F10102F1DC30BD0000064C074DE6
:1001F00006E0E06840F0010394E8070098471034F7
:10020000AC42F6D3FFF798FFE41600080417000885
:1002100000BFFEE770472DE9F041024600250026A9
:10022000002000230024002791F803C00CF00F05E4
:1002300091F803C00CF0100CBCF1000F03D091F842
:1002400002C04CEA050591F800C0BCF1000F31D0A6
:10025000146800202BE04FF0010C0CFA00F3B1F809
:1002600000C00CEA03069E4220D183004FF00F0C21
:100270000CFA03F7BC4305FA03FC4CEA040491F8BA
:1002800003C0BCF1280F06D14FF0010C0CFA00FCA2
:10029000C2F814C00AE091F803C0BCF1480F05D1C0
:1002A0004FF0010C0CFA00FCC2F810C0401C0828EA
:1002B000D1D31460B1F800C0BCF1FF0F34DD546835
:1002C00000202EE000F1080C4FF0010808FA0CF3B2
:1002D000B1F800C00CEA03069E4221D183004FF022
:1002E0000F0C0CFA03F7BC4305FA03FC4CEA0404B8
:1002F00091F803C0BCF1280F05D100F1080C08FAF1
:100300000CF8C2F8148091F803C0BCF1480F07D173
:1003100000F1080C4FF0010808FA0CF8C2F8108040
:10032000401C0828CED35460BDE8F081416170477D
:100330000161704700BFFEE700BFFEE770470000A5
:1003400070B5002100230F22C47804B3154C246833
:1003500004F4E064C4F5E064210AC1F10403CA4076
:10036000447804FA03F184781440214309010E4CC7
:100370000678A155047804F01F050124AC400578E7
:100380006D11AD0005F1E025C5F8004109E00478E4
:1003900004F01F050124AC40044D0678761145F8A1
:1003A000264070BD0CED00E000E400E080E100E0DC
:1003B00002490143024A1160704700000000FA053B
:1003C0000CED00E07047000029B1064AD2690243F3
:1003D000044BDA6104E0034AD2698243014BDA61DB
:1003E000704700000010024029B1064A126902431A
:1003F000044B1A6104E0034A12698243014B1A61FB
:10040000704700000010024029B1064A9269024379
:10041000044B9A6104E0034A92698243014B9A615A
:10042000704700000010024029B1064AD26802431A
:10043000044BDA6004E0034AD2688243014BDA607D
:10044000704700000010024030B500210022002457
:1004500000232D4D6D6805F00C0121B1042905D054
:10046000082923D105E0294D056022E0274D0560CC
:100470001FE0254D6D6805F47012234D6D6805F47D
:100480008034022505EB92421CB9214D554305608D
:100490000BE01D4D6D6805F400351DB11C4D554335
:1004A000056002E0194D5543056002E0174D0560F7
:1004B00000BF00BF144D6D6805F0F0010909154D2E
:1004C0006B5C0568DD4045600F4D6D6805F4E061CB
:1004D000090A104D6B5C4568DD4085600A4D6D680A
:1004E00005F46051C90A0B4D6B5C4568DD40C56081
:1004F000054D6D6805F44041890B074D6B5CC5687F
:10050000B5FBF3F5056130BD0010024000127A0022
:1005100000093D001400002024000020704710B5A1
:1005200000F002F810BD00000CB500200190009012
:100530003348006840F480303149086000BF3048DB
:10054000006800F4003000900198401C0190009871
:1005500018B90198B0F5A06FF1D12948006800F4EE
:10056000003010B10120009001E0002000900098C0
:10057000012843D12348006840F010002149086059
:100580000846006820F0030008600846006840F054
:10059000020008601A4840681949486008464068E7
:1005A00048600846406840F48060486008464068FB
:1005B00020F47C1048600846406840F4E810486029
:1005C0000846006840F08070086000BF0C48006872
:1005D00000F000700028F9D00948406820F00300BE
:1005E000074948600846406840F00200486000BF84
:1005F0000348406800F00C000828F9D10CBD000049
:1006000000100240002002400448006820B1034866
:100610000068401E01490860704700002800002063
:1006200010B5FFF7F1FF10BD10B51348006840F09A
:1006300001001149086008464068104908400E4909
:100640004860084600680E4908400B4908600846A3
:10065000006820F4802008600846406820F4FE000E
:1006600048604FF41F008860FFF759FF4FF00060AB
:100670000449086010BD0000001002400000FFF8AF
:10068000FFFFF6FE08ED00E010B500F0A7FE10BD7C
:10069000CA430282704721B1028842F001020280FF
:1006A00004E002884FF6FE731A400280704730B5AE
:1006B0000246002000230024158A05EA01039589DB
:1006C00005EA010413B10CB1012000E0002030BDA7
:1006D0001AB183890B43838102E083898B43838131
:1006E00070470000002202881D4B98420ED01D4B1F
:1006F00098420BD0B0F1804F08D01B4B984205D0E8
:100700001A4B984202D01A4B984204D14FF68F737D
:100710001A404B881A43174B984207D0164B984201
:1007200004D04FF6FF431A40CB881A4302808B88CF
:1007300083850B8803850A4B98420BD0094B98425E
:1007400008D00E4B984205D00D4B984202D00D4B6D
:10075000984201D10B7A03860123838270470000FF
:10076000002C01400034014000040040000800401B
:10077000000C004000100040001400400040014008
:10078000004401400048014010B500F0B9FE10BD22
:1007900010B500F02BFF10BD01F40072B2F5007F20
:1007A00000D100BFCA430280704721B1828942F460
:1007B0000052828104E082894DF6FF731A408281E3
:1007C0007047000010B504462048844209D1012139
:1007D0008803FFF729FE00214FF48040FFF724FE35
:1007E00032E01B48844209D101214804FFF7FCFD97
:1007F00000214FF40030FFF7F7FD25E01548844253
:1008000009D101218804FFF7EFFD00214FF480207A
:10081000FFF7EAFD18E01048844209D10121C8041D
:10082000FFF7E2FD00214FF40020FFF7DDFD0BE0B4
:100830000A48844208D101210805FFF7D5FD0021AF
:100840004FF48010FFF7D0FD10BD000000380140CC
:100850000044004000480040004C00400050004070
:1008600002460020B1F5007F00D100BF13880B4085
:100870000BB1012000E00020704770B50246002453
:1008800000230025002040F66A16B14200D100BFC7
:10089000C1F3421501F01F03012606FA03F3012DEF
:1008A00002D19689334006E0022D02D1168A3340E8
:1008B00001E0968A33400C12012606FA04F41688E9
:1008C000344013B10CB1012000E0002070BDF0B540
:1008D0000346002400260025002040F66A17B9428E
:1008E00000D100BF1846C1F3421401F01F060127D2
:1008F00007FA06F5012C01D10C3004E0022C01D1DD
:10090000103000E014301AB107682F43076002E08E
:100910000768AF430760F0BD2DE9F04786B0054694
:100920000E460024A24600BFA1460027B08900B1B0
:1009300000BF2F462C8A4CF6FF700440F088044319
:100940002C82AC894EF6F3100440B08831890843FC
:10095000718908430443AC81AC8A4FF6FF400440E0
:10096000B0890443AC8201A8FFF76EFD1F4887429F
:1009700002D1DDF810A001E0DDF80CA0A88900F498
:10098000004040B10AEBCA0000EB0A103168490090
:10099000B0FBF1F807E00AEBCA0000EB0A1031687F
:1009A0008900B0FBF1F86420B8FBF0F004012009E5
:1009B000642101FB1089A88900F4004040B1322075
:1009C00000EBC900B0FBF1F000F00700044308E0C1
:1009D000322000EB09106421B0FBF1F000F00F00B1
:1009E00004432C8106B0BDE8F087000000380140C8
:1009F000C1F308028280704700BFFEE70FB4054BC9
:100A000010B503A9044A029800F018F810BC5DF86C
:100A100014FB0000110E00083800002002E008C896
:100A2000121F08C1002AFAD170477047002001E068
:100A300001C1121F002AFBD1704700002DE9FF4FB2
:100A40008BB09A460F460546002606E025280BD0B7
:100A500052460D9990476D1C761C28780028F5D1D8
:100A60000FB03046BDE8F08F0024A0460122604957
:100A700000E0044315F8013F203B02FA03F008426E
:100A8000F7D128782E2817D115F8010F44F0040467
:100A90002A280ED06FF02F022878A0F13001092902
:100AA0000AD808EB880102EB410100EB01086D1C3C
:100AB000F2E757F8048B6D1C287869283ED006DCD5
:100AC0000028CDD063280BD0642804D136E07328E9
:100AD00010D075284BD052460D999047761C85E072
:100AE00017F8040B8DF8000000208DF80100E9468E
:100AF000012003E057F8049B4FF0FF3061074FF0EF
:100B0000000401D40AE0641C44450DDA8442FADB97
:100B100019F804100029F6D106E0641C8442FCDBBD
:100B200019F804100029F8D1264404E019F8010B43
:100B300052460D999047641EF8D257E001CF4FF00E
:100B40000A0B002802DA40422D2102E0210504D5DB
:100B50002B218DF82410012103E0E10705D020218D
:100B6000F7E70DF1200908910CE00021F9E701CF2A
:100B70004FF00A0BF9E75946FFF721FB01F130026C
:100B800009F8012D0028F6D1ADEB090000F1200B8A
:100B9000600701D44FF00108D84502DDA8EB0B0037
:100BA00000E000208046002406E009A85246005DCF
:100BB0000D999047641C761C08988442F5DB04E08C
:100BC000302052460D999047761CB8F10001A8F1EB
:100BD0000108F5DC05E019F8010B52460D99904724
:100BE000761CBBF10001ABF1010BF4DC6D1C34E7AA
:100BF00009280100074908604FF0E021096941F028
:100C000001014FF0E022116100BF0249096800298B
:100C1000FBD170472800002010B504462CA0FFF738
:100C2000EDFE0D2C3ED2DFE804F03D070E12161A41
:100C30002125292D313539002AA0FFF7DFFE0420B8
:100C40002B49087032E02BA0FFF7D8FE2EE02EA033
:100C5000FFF7D4FE2AE035A0FFF7D0FE26E037A04C
:100C6000FFF7CCFE3BA0FFF7C9FE1FE03DA0FFF75A
:100C7000C5FE1BE03FA0FFF7C1FE17E046A0FFF74F
:100C8000BDFE13E049A0FFF7B9FE0FE04CA0FFF74F
:100C9000B5FE0BE04FA0FFF7B1FE07E053A0FFF752
:100CA000ADFE03E055A0FFF7A9FE00BF00BF002086
:100CB000564908700E480078401C0D4908700846D7
:100CC0000078032803DB0020087000F0EDF910BD68
:100CD000BFAACABCBDF8D0D0B4EDCEF3B4A6C0ED67
:100CE0000D0A00004154204552524F520D0A000097
:100CF00036000020B2E9D1AFD0C5BAC5C7BFB6C86B
:100D0000CAA7B0DC0D0A0000B6C1BFA8CAA7B0DCF4
:100D1000A3ACC7EBBCECB2E953494DBFA8CAC7B7F7
:100D2000F1D2D1B2E5C8EB0D0A000000CDF8C2E760
:100D3000D7A2B2E1CAA7B0DC0D0A0000CDF8C2E725
:100D4000B8BDD7C5CAA7B0DC2CD6D8C6F4C9E4C68E
:100D5000B50D0A0041542B4346554E3D312C310D03
:100D60000A000000B4F2B5E7BBB0CAA7B0DC0D0AB8
:100D700000000000B2E9D1AFC4A3BFE9BACBD0C430
:100D8000B0E5C8ABB2BFBBF9B1BED0C5CFA2CAA750
:100D9000B0DC0D0A00000000D1A1D4F1B6CCD0C562
:100DA000C4A3CABDCAA7B0DC0D0A0000CCEED0B403
:100DB000B6CCD0C5BAC5C2EBCAA7B0DC0D0A0000DC
:100DC000D0B4B6CCD0C5C4DAC8DDCAA7B0DC0D0A31
:100DD00000000000B6CCCFA2BDE1CAF8B1EAD6BE91
:100DE000CCEED0B4CAA7B0DC0D0A0000BBF1C8A19C
:100DF000D4CBD3AAC9CCCAA7B0DC0000B3F5CABC17
:100E0000BBAFCDEAB3C90D0A0000000033000020DB
:100E100070B504460D46E1B20548FFF7E9FD00BF95
:100E200080210348FFF71CFD0028F9D0204670BD43
:100E30000038014008B501210820FFF7E5FA4FF41A
:100E40009070ADF8000010208DF8030003208DF89D
:100E5000020069460548FFF7DEF980210348FFF7E5
:100E600065FA20210148FFF763FA08BD000C014034
:100E700010B54FF480610348FFF77DF90020024967
:100E8000086010BD3C0000202C00002010B54FF47D
:100E9000FA60FFF7AFFE09A0FFF7B0FD01234FF4A2
:100EA000FA7209A105A000F019F908B1072010BDD8
:100EB0004FF4FA50FFF79EFE0020F8E741542B470D
:100EC00053560D0A000000004169724D324D00007A
:100ED00010B535A0FFF792FD02234FF4C87234A17C
:100EE00031A000F0FBF808B1012010BD4FF47A707A
:100EF000FFF780FE2FA0FFF781FD0123C82230A15C
:100F00002CA000F0EBF808B10220EEE74FF47A7065
:100F1000FFF770FE2CA0FFF771FD0123C8222DA161
:100F200029A000F0DBF808B10320DEE74FF47A7067
:100F3000FFF760FE2BA0FFF761FD0123C8222DA162
:100F40002EA000F0CBF808B10420CEE74FF47A7061
:100F5000FFF750FE2CA0FFF751FD02234FF4FA7269
:100F60002CA129A000F0BAF808B10520BDE74FF484
:100F70007A70FFF73FFE2AA0FFF740FD02234FF4EF
:100F8000FA722AA126A000F0A9F808B10C20ACE75B
:100F900040F6B830FFF72EFE26A0FFF72FFD012008
:100FA000294908700020A0E741540D0A0000000004
:100FB0004F4B000041542B4353510D0A00000000D9
:100FC0002B4353513A00000041542B4350494E3FAC
:100FD0000D0A00002B4350494E3A205245414459D6
:100FE000000000000D0A41542B435245473F0D0AB3
:100FF000000000002B435245473A000041542B4368
:101000005245473F0D0A000041542B434741545479
:101010003F0D0A002B43474154543A203100000051
:1010200041542B434F50533F0D0A00002B434F5068
:10103000530000004750525320B3F5CABCBBAFCD9C
:10104000EAB3C90D0A0000003300002010B540F6D5
:10105000B830FFF7CFFD09A0FFF7D0FC01234FF414
:10106000FA720BA10BA000F039F808B1062010BDF0
:1010700040F6B830FFF7BEFD0020F8E70D0A4154F6
:101080004431353632323136343431353B0D0A0095
:101090004F4B00004154443135363232313634340E
:1010A00031353B0D0A00000010B508A0FFF7A6FC83
:1010B00080210948FFF73AF940F6B830FFF79AFD6A
:1010C00080210548FFF734F910BD0000D6D8C6F4DA
:1010D000C4A3BFE90D0A0000000C01402DE9F04750
:1010E0000746884614461D46002600BF27E0A14655
:1010F0003846FFF75DF81FFA80FA5146384600F08F
:10110000D9FA13E01048007868B141460F48FFF75C
:101110003DF840B10D490EA0FFF770FCFFF7A8FEA7
:101120000020BDE8F0871920FFF764FD5FEA0900A1
:10113000A9F10109E6D1FFF79BFE701CC6B2AE42D1
:10114000D5DB0120EDE70000320000203C0000204C
:101150002573000010B52AA0FFF750FC01234FF4BF
:10116000FA722CA12CA0FFF7B9FF08B10D2010BD19
:1011700041F28830FFF73EFD2CA0FFF73FFC012332
:101180004FF4FA7223A129A0FFF7A8FF08B10820A5
:10119000EDE741F28830FFF72DFD27A0FFF72EFC89
:1011A00001234FF4FA722AA123A0FFF797FF08B199
:1011B0000920DCE741F28830FFF71CFD25A0FFF78E
:1011C0001DFC01234FF4FA7221A122A0FFF786FF34
:1011D00008B10A20CBE741F28830FFF70BFD1A2156
:1011E00020A0FFF70BFC01234FF47A721EA121A06F
:1011F000FFF774FF08B10B20B9E70020B7E7000044
:101200000D0A41542B43534353463D2247534D222D
:101210000D0A00004F4B000041542B4353435346EB
:101220003D2247534D220D0A0000000041542B433C
:101230004D47463D310D0A0041542B434D47533D28
:1012400022313536323231363434313522720A00A9
:101250003E0000006D65737361676520746573748B
:1012600000000000256300002B434D47533A203116
:1012700031000000307831610000000000F06CF8AF
:1012800000F0A6F84FF4165000F030F94FF4165065
:1012900000F0A2F9FFF7CEFD80212348FFF748F8C0
:1012A00022A0FFF7ABFB3DE02848007818B9FFF714
:1012B0000FFE274908704FF47A70FFF79BFC234814
:1012C000007818B1FFF7E2FD2149087040F6B83008
:1012D000FFF790FC1D48007850B11D48007838B9E0
:1012E00040F6B830FFF786FCFFF7B0FE18490870EB
:1012F0001748007838B941F28830FFF77BFCFFF7D8
:1013000029FF134908701148007858B9104800782F
:1013100040B10F4801780FA0FFF770FB0C48007830
:10132000FFF77AFCC0E70000000C014053494D383C
:10133000303053C4A3BFE9B7A2B6CCD0C5BACDB440
:10134000F2B5E7BBB0B2E2CAD40D0A003300002008
:10135000370000202564000030B500BF1948006840
:101360004FF47A72B0FBF2F1B1F1807F01D301202A
:101370001DE021F07F40401E4FF0E02250615017E9
:101380000F22002807DA13071D0E0F4B00F00F0481
:10139000241F1D5503E013071C0E0C4B1C5400BFEB
:1013A00000204FF0E022906107201061002000280B
:1013B000D4D14FF0E020006920F001004FF0E0218F
:1013C000086130BD0000002018ED00E000E400E0FE
:1013D00010B500F041F800F029F810BD10B501215A
:1013E0000E48FFF764F9B8B101210C48FFF750F936
:1013F0000B48007880B10B480078401C0949087000
:1014000008460078052807DB0120074908700020FE
:10141000034908700349087010BD00000004004033
:1014200031000020300000203200002008B54FF4C9
:10143000A060FEF7BDFF1D208DF8000001208DF893
:10144000010000208DF8020001208DF8030068469D
:10145000FEF776FF08BD00000EB501210220FEF761
:10146000B3FF40F2E730ADF804004720ADF80000CC
:101470000020ADF80600ADF8020069460648FFF707
:1014800031F9012211460448FFF722F901210248EF
:10149000FFF701F90EBD00000004004008B501216E
:1014A00044F20400FEF7B0FF0E48FFF78BF94FF44B
:1014B0000070ADF8000018208DF8030003208DF8AF
:1014C000020069460848FEF7A6FE4FF48060ADF8BA
:1014D000000004208DF8030069460348FEF79BFED8
:1014E00008BD0000003801400008014010B5044666
:1014F000FFF7D4FF00F012F8204600F025F810BDE9
:1015000010B540F225510448FFF7B7F918B1202172
:101510000148FFF741F910BD0038014008B54FF40C
:10152000A060FEF745FF25208DF8000001208DF812
:10153000010002208DF8020001208DF803006846AA
:10154000FEF7FEFE08BD00001FB504460094002013
:10155000ADF80400ADF80600ADF80800ADF80C00D9
:101560000C20ADF80A0069460648FFF7D5F90122BC
:1015700040F225510348FFF7AAF901210148FFF77E
:1015800014F91FBD0038014008B501214804FEF7D9
:101590001BFF01210420FEF737FF0D48FFF712F96A
:1015A0000420ADF8000018208DF8030003208DF80A
:1015B000020069460748FEF72EFE0820ADF800003D
:1015C00004208DF8030069460248FEF724FE08BD9A
:1015D000004400400008014010B50446FFF7D4FF66
:1015E00000F034F8204600F045F810BD10B540F288
:1015F00025511148FFF741F9E8B120210E48FFF7C6
:10160000CBF801200D49087000200D4908700A48E8
:10161000001D0088C1B20B4802680068401C094BDD
:1016200018600948815418460068B0F5806F02D3ED
:1016300000201946086010BD004400403100002021
:10164000300000202C0000203C00002008B54FF4A2
:10165000A060FEF7ADFE26208DF8000001208DF879
:1016600001008DF802008DF803006846FEF768FE61
:1016700008BD00001FB5044600940020ADF804002A
:10168000ADF80600ADF80800ADF80C000C20ADF880
:101690000A0069460648FFF73FF9012240F225514A
:1016A0000348FFF714F901210148FFF77EF81FBD39
:1016B0000044004070B504460D4600260DE014F8C5
:1016C000011B0748FFF794F900BF40210448FFF7CA
:1016D000C7F80028F9D0701CC6B2AE42EFDB70BD6F
:1016E0000044004004170008000000203C000000F7
:1016F0001C0A0008401700083C00002004080000F5
:101700002C0A000800A24A040000000000000000AB
:101710000102030406070809000000000102030497
:10172000010203040607080902040608000000007D
:1017300000000000000000000000000000000000A9
:0400000508000131BD
:00000001FF
