:020000040800F2
:1000000098060020CD0100086D0400081B040008BC
:1000100069040008F7020008B108000800000000A9
:10002000000000000000000000000000390500088A
:10003000FB02000800000000F50400088506000827
:10004000E7010008E7010008E7010008E7010008F0
:10005000E7010008E7010008E7010008E7010008E0
:10006000E7010008E7010008E7010008E7010008D0
:10007000E7010008E7010008E7010008E7010008C0
:10008000E7010008E7010008E7010008E7010008B0
:10009000E7010008E7010008E7010008E7010008A0
:1000A000E7010008E7010008E7010008E701000890
:1000B000E7010008E7010008E7010008E701000880
:1000C000E7010008E7010008E7010008E701000870
:1000D000E7010008E7010008E7010008E701000860
:1000E000E7010008E7010008E7010008E701000850
:1000F000E7010008E7010008E7010008E701000840
:10010000E7010008E7010008E7010008E70100082F
:10011000E7010008E701000869070008E701000897
:10012000E7010008E7010008E7010008E70100080F
:1001300000F002F800F03AF80AA090E8000C8244BF
:100140008344AAF10107DA4501D100F02FF8AFF29C
:10015000090EBAE80F0013F0010F18BFFB1A43F0A5
:10016000010318477409000094090000103A24BFE5
:1001700078C878C1FAD8520724BF30C830C144BF0C
:1001800004680C607047000000230024002500264E
:10019000103A28BF78C1FBD8520728BF30C148BFEA
:1001A0000B6070471FB51FBD10B510BD00F031F8D2
:1001B0001146FFF7F7FF00F07DFB00F04FF803B4A6
:1001C000FFF7F2FF03BC00F053F800000948804736
:1001D00009480047FEE7FEE7FEE7FEE7FEE7FEE729
:1001E000FEE7FEE7FEE7FEE704480549054A064B41
:1001F000704700000907000831010008980000203E
:10020000980600209802002098020020704770474E
:100210007047754600F028F8AE460500694653461B
:1002200020F00700854618B020B5FFF7DDFFBDE8D8
:1002300020404FF000064FF000074FF000084FF04D
:10024000000B21F00701AC46ACE8C009ACE8C009DE
:10025000ACE8C009ACE8C0098D4670470446AFF36E
:1002600000802046FFF7ABFF0048704734000020B5
:1002700001491820ABBEFEE726000200704710B50A
:1002800000F024F800F002F810BD00000EB50121C6
:10029000102000F031F940F2E730ADF804004720BB
:1002A000ADF800006946084800F09EFA01210648B2
:1002B00000F06EFA01221146034800F08CFA012189
:1002C000014800F06BFA0EBD0010004008B54FF475
:1002D000C06000F005F936208DF8000000208DF890
:1002E000010003208DF8020001208DF8030068460C
:1002F00000F0BEF808BD00BFFEE770472DE9F041F1
:10030000024600250026002000230024002791F843
:1003100003C00CF00F0591F803C00CF0100CBCF1F9
:10032000000F03D091F802C04CEA050591F800C017
:10033000BCF1000F31D0146800202BE04FF0010C0D
:100340000CFA00F3B1F800C00CEA03069E4220D17B
:1003500083004FF00F0C0CFA03F7BC4305FA03FCC3
:100360004CEA040491F803C0BCF1280F06D14FF009
:10037000010C0CFA00FCC2F814C00AE091F803C0AA
:10038000BCF1480F05D14FF0010C0CFA00FCC2F88B
:1003900010C0401C0828D1D31460B1F800C0BCF1D3
:1003A000FF0F34DD546800202EE000F1080C4FF000
:1003B000010808FA0CF3B1F800C00CEA03069E42EB
:1003C00021D183004FF00F0C0CFA03F7BC4305FA60
:1003D00003FC4CEA040491F803C0BCF1280F05D1DA
:1003E00000F1080C08FA0CF8C2F8148091F803C068
:1003F000BCF1480F07D100F1080C4FF0010808FAD2
:100400000CF8C2F81080401C0828CED35460BDE818
:10041000F081416170470161704700BFFEE7000055
:1004200008B50121482000F077F82020ADF8000041
:1004300010208DF8030003208DF80200694608485B
:10044000FFF75CFF69460748FFF758FF2021044883
:10045000FFF7E1FF20210348FFF7DDFF08BD0000A3
:1004600000180140000C014000BFFEE7704700008B
:1004700070B5002100230F22C47804B3154C246802
:1004800004F4E064C4F5E064210AC1F10403CA4045
:10049000447804FA03F184781440214309010E4C96
:1004A0000678A155047804F01F050124AC400578B6
:1004B0006D11AD0005F1E025C5F8004109E00478B3
:1004C00004F01F050124AC40044D0678761145F870
:1004D000264070BD0CED00E000E400E080E100E0AB
:1004E00002490143024A1160704700000000FA050A
:1004F0000CED00E07047000029B1064AD2690243C2
:10050000044BDA6104E0034AD2698243014BDA61A9
:10051000704700000010024029B1064A9269024368
:10052000044B9A6104E0034A92698243014B9A6149
:10053000704700000010024070470000044909683D
:10054000044A92FBF1F191FBF0F1034A116070470C
:1005500028000020008793032400002010B500F03D
:1005600001F810BD0CB500200190009033480068E0
:1005700040F480303149086000BF3048006800F422
:10058000003000900198401C0190009818B9019823
:10059000B0F5A06FF1D12948006800F4003010B127
:1005A0000120009001E0002000900098012843D134
:1005B0002348006840F010002149086008460068A0
:1005C00020F0030008600846006840F00200086060
:1005D0001A4840681949486008464068486008461B
:1005E000406840F4806048600846406820F47C1011
:1005F00048600846406840F4E810486008460068D3
:1006000040F08070086000BF0C48006800F0007087
:100610000028F9D00948406820F0030007494860E5
:100620000846406840F00200486000BF0348406848
:1006300000F00C000828F9D10CBD000000100240A9
:100640000020024038B5044600200B4908600B49E1
:10065000086000BF01212020FFF75EFFB020ADF849
:10066000000010208DF8030003208DF80200694679
:100670000348FFF743FE38BD2C0000203000002067
:100680000014014010B500F001F910BD30B51A4852
:1006900000681A4AB0FBF2F1B1F1807F01D301206A
:1006A0001DE021F07F40401E4FF0E02250615017C6
:1006B0000F22002807DA13071D0E114B00F00F045C
:1006C000241F1D5503E013071C0E0E4B1C5400BFC6
:1006D00000204FF0E022906107201061002008B157
:1006E00000BFFEE74FF0E020006920F001004FF06E
:1006F000E021086130BD000004000020A086010058
:1007000018ED00E000E400E010B51348006840F088
:1007100001001149086008464068104908400E4928
:100720004860084600680E4908400B4908600846C2
:10073000006820F4802008600846406820F4FE002D
:1007400048604FF41F008860FFF708FF4FF000601B
:100750000449086010BD0000001002400000FFF8CE
:10076000FFFFF6FE08ED00E010B50121064800F09D
:1007700021F840B105480068401C04490860012187
:10078000014800F008F810BD0010004000000020F3
:10079000CA4302827047CA430282704721B102886D
:1007A00042F00102028004E002884FF6FE731A4014
:1007B0000280704730B50246002000230024158ACD
:1007C00005EA0103958905EA010413B10CB1012082
:1007D00000E0002030BD1AB183890B43838102E021
:1007E00083898B4383817047002202881D4B984286
:1007F0000ED01D4B98420BD0B0F1804F08D01B4B50
:10080000984205D01A4B984202D01A4B984204D114
:100810004FF68F731A404B881A43174B984207D0F4
:10082000164B984204D04FF6FF431A40CB881A4328
:1008300002808B8883850B8803850A4B98420BD0F6
:10084000094B984208D00E4B984205D00D4B984268
:1008500002D00D4B984201D10B7A0386012383828B
:1008600070470000002C01400034014000040040AB
:1008700000080040000C0040001000400014004040
:100880000040014000440140004801400648006823
:1008900048B105480068401E0349086003480068E5
:1008A000401C024908607047180000201C0000200E
:1008B00000BFFEE74FF40070FFF7C4FEFFF7E6FE4F
:1008C000FFF7DDFC1420FFF739FEFFF7A9FD03E079
:1008D0000121142000F002F8FAE700002DE9F041B0
:1008E00004460F4622480760002C01DD254600E043
:1008F000654238E01F48D0F800801F480068A8EB28
:1009000000001E49096888422CD31B48C0F80080AB
:100910001748006801280ED119480068401C184982
:100920000860084600681749096888420FD100200E
:10093000134908600BE01248006818B911480068B4
:100940000F4908600E480068401E0D4908606D1E82
:100950000B480668F11706EB5171C910A6EBC100F0
:1009600000F012F800BF002DC4DCBDE8F0810000EB
:100970002000002000000020300000202400002083
:100980002C0000202800002010B50446082C7CD242
:10099000DFE804F00415263748596A7C10214D48D9
:1009A000FFF737FD20214B48FFF733FD4021494831
:1009B000FFF72FFD80214748FFF72DFD88E010212C
:1009C0004448FFF726FD20214248FFF722FD402141
:1009D0004048FFF720FD80213E48FFF71CFD77E0EF
:1009E00010213C48FFF715FD20213A48FFF711FD83
:1009F00040213848FFF70FFD80213648FFF709FDF9
:100A000066E010213348FFF704FD20213148FFF74D
:100A100002FD40212F48FFF7FEFC80212D48FFF703
:100A2000F8FC55E010212B48FFF7F3FC2021294862
:100A3000FFF7F1FC40212748FFF7EBFC8021254818
:100A4000FFF7E7FC44E010212248FFF7E4FC2021F7
:100A50002048FFF7E0FC40211E48FFF7DAFC802128
:100A60001C48FFF7D6FC33E010211A48FFF7D3FCEF
:100A700020211848FFF7CDFC40211648FFF7C9FC9C
:100A800080211448FFF7C5FC22E010E01021114836
:100A9000FFF7C1FC20210F48FFF7BBFC40210D48A8
:100AA000FFF7B7FC80210B48FFF7B5FC10E01021E1
:100AB0000848FFF7AEFC20210648FFF7AAFC4021BA
:100AC0000448FFF7A6FC80210248FFF7A2FC00BF04
:100AD00000BF10BD00140140F80A0008000000200B
:100AE000340000006C0100082C0B000834000020CA
:100AF00064060000880100080000000000A24A040B
:100B000000000000000000000102030406070809BD
:100B100000000000000000000000000000000000D5
:0C0B2000000000000000000000000000C9
:0400000508000131BD
:00000001FF
