:020000040800F2
:10000000A8060020CD010008090600085D050008CB
:10001000D90500087F02000821090008000000003F
:10002000000000000000000000000000C106000801
:1000300083020008000000007D060008190800087F
:10004000E7010008E7010008E7010008E7010008F0
:10005000E7010008E7010008E7010008E7010008E0
:10006000AD020008E7010008E7010008E701000809
:10007000E7010008E7010008E7010008E7010008C0
:10008000E7010008E7010008E7010008E7010008B0
:10009000E7010008E7010008E7010008E7010008A0
:1000A000E7010008E7010008E7010008E701000890
:1000B000E7010008E7010008E7010008E701000880
:1000C000E7010008E7010008E7010008E701000870
:1000D000E7010008E7010008E7010008E701000860
:1000E000E7010008E7010008E7010008E701000850
:1000F000E7010008E7010008E7010008E701000840
:10010000E7010008E7010008E7010008E70100082F
:10011000E7010008E7010008E7010008E70100081F
:10012000E7010008E7010008E7010008E70100080F
:1001300000F002F800F03AF80AA090E8000C8244BF
:100140008344AAF10107DA4501D100F02FF8AFF29C
:10015000090EBAE80F0013F0010F18BFFB1A43F0A5
:1001600001031847B4080000D4080000103A24BF67
:1001700078C878C1FAD8520724BF30C830C144BF0C
:1001800004680C607047000000230024002500264E
:10019000103A28BF78C1FBD8520728BF30C148BFEA
:1001A0000B6070471FB51FBD10B510BD00F031F8D2
:1001B0001146FFF7F7FF00F0B5FB00F04FF803B46E
:1001C000FFF7F2FF03BC00F053F800000948804736
:1001D00009480047FEE7FEE7FEE7FEE7FEE7FEE729
:1001E000FEE7FEE7FEE7FEE704480549054A064B41
:1001F000704700009D08000831010008A800002099
:10020000A8060020A8020020A8020020704770471E
:100210007047754600F028F8AE460500694653461B
:1002200020F00700854618B020B5FFF7DDFFBDE8D8
:1002300020404FF000064FF000074FF000084FF04D
:10024000000B21F00701AC46ACE8C009ACE8C009DE
:10025000ACE8C009ACE8C0098D4670470446AFF36E
:1002600000802046FFF7ABFF0048704744000020A5
:1002700001491820ABBEFEE726000200704700BF10
:10028000FEE7704701B50849009808604FF0E0208C
:10029000006940F001004FF0E021086100BF024812
:1002A00000680028FBD108BD3400002010B54FF0D5
:1002B000E020006920F001004FF0E02108614FF4D8
:1002C000FA60FFF7DFFF0421084800F03AF928B987
:1002D0000120074908700749088002E0012006490B
:1002E0000880042000F032F810BD00000018014022
:1002F000200000203E0000203C0000200EB500F051
:100300002FF90121022000F0BBF90221042000F0A6
:100310006DF80420019000208DF808000C208DF865
:10032000090001208DF80A0001A800F015F8082046
:100330008DF8000002208DF801008DF802000120E8
:100340008DF80300684600F061F90EBD01490860B0
:100350007047000014040140002123498279002ADB
:100360003AD00A46126803689A430B461A600A1D7F
:10037000126803689A430B1D1A60027911440A68D7
:1003800003681A430A60184A0832126803689A43DD
:10039000154B08331A601A1D126803689A43124BF2
:1003A0000C331A604279102A0ED11A1F12680368A2
:1003B0001A430D4B08331A601A1D126803681A435A
:1003C000094B0C331A600DE00749427911440A6861
:1003D00003681A430A6005E0027911440A68036859
:1003E0009A430A60704700000004014030B50022C3
:1003F0008B071C0F0F2303FA04F20B4B8C1053F8DE
:1004000024309343084C8D1044F8253023468C103B
:1004100053F824308C07240F00FA04F42343024CD1
:100420008D1044F8253030BD080001402DE9F04121
:10043000024600250026002000230024002791F812
:1004400003C00CF00F0591F803C00CF0100CBCF1C8
:10045000000F03D091F802C04CEA050591F800C0E6
:10046000BCF1000F31D0146800202BE04FF0010CDC
:100470000CFA00F3B1F800C00CEA03069E4220D14A
:1004800083004FF00F0C0CFA03F7BC4305FA03FC92
:100490004CEA040491F803C0BCF1280F06D14FF0D8
:1004A000010C0CFA00FCC2F814C00AE091F803C079
:1004B000BCF1480F05D14FF0010C0CFA00FCC2F85A
:1004C00010C0401C0828D1D31460B1F800C0BCF1A2
:1004D000FF0F34DD546800202EE000F1080C4FF0CF
:1004E000010808FA0CF3B1F800C00CEA03069E42BA
:1004F00021D183004FF00F0C0CFA03F7BC4305FA2F
:1005000003FC4CEA040491F803C0BCF1280F05D1A8
:1005100000F1080C08FA0CF8C2F8148091F803C036
:10052000BCF1480F07D100F1080C4FF0010808FAA0
:100530000CF8C2F81080401C0828CED35460BDE8E7
:10054000F0810246002093680B400BB1012000E0CF
:1005500000207047416170470161704700BFFEE7AE
:1005600008B50121442000F09BF81C20ADF80000E4
:1005700048208DF8030003208DF8020069460748E3
:10058000FFF754FF0120ADF8000048208DF803006C
:1005900069460348FFF74AFF08BD00000018014004
:1005A0000008014008B50121082000F079F820205A
:1005B000ADF8000010208DF8030003208DF8020034
:1005C00069460448FFF732FF20210248FFF7C4FFC5
:1005D00008BD0000000C014000BFFEE708B5012186
:1005E000202000F05DF8F020ADF8000010208DF81C
:1005F000030003208DF8020069460248FFF716FF4A
:1006000008BD0000001401407047000070B50021D3
:1006100000230F22C47804B3154C246804F4E0646A
:10062000C4F5E064210AC1F10403CA40447804FA25
:1006300003F184781440214309010E4C0678A1553A
:10064000047804F01F050124AC4005786D11AD005D
:1006500005F1E025C5F8004109E0047804F01F0524
:100660000124AC40044D0678761145F8264070BD53
:100670000CED00E000E400E080E100E070470000E5
:1006800029B1064AD2690243044BDA6104E0034A05
:10069000D2698243014BDA617047000000100240CA
:1006A00029B1064A92690243044B9A6104E0034A65
:1006B00092698243014B9A6170470000001002402A
:1006C0007047000010B5044604F0010020B110216D
:1006D0001648FFF741FF03E010211448FFF73AFFE7
:1006E00004F0020020B120211048FFF735FF03E09D
:1006F00020210E48FFF72EFF04F0040020B1402116
:100700000A48FFF729FF03E040210848FFF722FFCE
:1007100004F0080020B180210448FFF71DFF03E02A
:1007200080210248FFF716FF10BD000000140140B1
:1007300010B500F001F810BD0CB50020019000903C
:100740003348006840F480303149086000BF3048C9
:10075000006800F4003000900198401C019000985F
:1007600018B90198B0F5A06FF1D12948006800F4DC
:10077000003010B10120009001E0002000900098AE
:10078000012843D12348006840F010002149086047
:100790000846006820F0030008600846006840F042
:1007A000020008601A4840681949486008464068D5
:1007B00048600846406840F48060486008464068E9
:1007C00020F47C1048600846406840F4E810486017
:1007D0000846006840F08070086000BF0C48006860
:1007E00000F000700028F9D00948406820F00300AC
:1007F000074948600846406840F00200486000BF72
:100800000348406800F00C000828F9D10CBD000036
:10081000001002400020024010B500F06FF810BD3B
:1008200030B51A4800681A4AB0FBF2F1B1F1807F86
:1008300001D301201DE021F07F40401E4FF0E02257
:10084000506150170F22002807DA13071D0E114BB5
:1008500000F00F04241F1D5503E013071C0E0E4B60
:100860001C5400BF00204FF0E0229061072010616F
:10087000002008B100BFFEE74FF0E020006920F043
:1008800001004FF0E021086130BD00000C000020A5
:10089000A086010018ED00E000E400E010B5134868
:1008A000006840F00100114908600846406810499E
:1008B00008400E494860084600680E4908400B4948
:1008C00008600846006820F48020086008464068F8
:1008D00020F4FE0048604FF41F008860FFF728FFF7
:1008E0004FF000600449086010BD00000010024095
:1008F0000000FFF8FFFFF6FE08ED00E00648006884
:1009000048B105480068401E034908600348006874
:10091000401C024908607047340000203800002065
:1009200000BFFEE7FFF77CFFFFF758FEFFF718FE5A
:10093000FFF738FEFFF7E2FCFFF734FE20211748EF
:10094000FFF708FE20211648FFF706FE25E00020ED
:100950001449086016E014480068643812490860B9
:1009600008460068C82808DA4FF47A7008600F4813
:10097000007880F001000D4908700A480068401CAA
:1009800008490860074800683228E4DB0648026826
:1009900006480178082000F00BF8D8E7001801405D
:1009A000000C01400800002004000020420000204C
:1009B0002DE9F04705460E4617460024A14622E0E1
:1009C0004FF000081AE0002414E0012E07D110496E
:1009D000085DFFF777FE3846FFF754FC06E00D4947
:1009E000085DFFF76FFE3846FFF74CFCC820FFF7A5
:1009F00049FC641C082CE8DB08F10108B8F1080F79
:100A0000E1DB09F10109A945DADBBDE8F087000067
:100A10002A00002022000020380A000800000020E0
:100A2000440000006C0100087C0A0008440000201B
:100A3000640600008801000800000000E8030000D0
:100A40000000000000A24A040000000000000000B6
:100A500001020304060708090001080C040602034A
:100A600001090901030206040C080000000000004F
:0C0A700000000000000000000000010079
:0400000508000131BD
:00000001FF
