:020000040800F2
:1000000088060020CD010008D50500084705000836
:10001000A50500087F020008E50B000800000000AD
:10002000000000000000000000000000A50600081D
:100030008302000800000000810600089107000804
:10004000E7010008E7010008E7010008E7010008F0
:10005000E7010008E7010008E7010008E7010008E0
:1000600085020008E7010008E7010008E701000831
:10007000E7010008E7010008E7010008E7010008C0
:10008000E7010008E7010008E7010008E7010008B0
:10009000E7010008E7010008E7010008E7010008A0
:1000A000E7010008E7010008E7010008E701000890
:1000B000E7010008E7010008E7010008E701000880
:1000C000E7010008E7010008E7010008E701000870
:1000D000E7010008E7010008E7010008E701000860
:1000E000E7010008E7010008E7010008E701000850
:1000F000E7010008E7010008E7010008E701000840
:10010000E7010008E7010008E7010008E70100082F
:10011000E7010008E701000831090008E7010008CD
:10012000E7010008E7010008E7010008E70100080F
:1001300000F002F800F03AF80AA090E8000C8244BF
:100140008344AAF10107DA4501D100F02FF8AFF29C
:10015000090EBAE80F0013F0010F18BFFB1A43F0A5
:1001600001031847000B0000200B0000103A24BFC9
:1001700078C878C1FAD8520724BF30C830C144BF0C
:1001800004680C607047000000230024002500264E
:10019000103A28BF78C1FBD8520728BF30C148BFEA
:1001A0000B6070471FB51FBD10B510BD00F031F8D2
:1001B0001146FFF7F7FF00F017FD00F04FF803B40A
:1001C000FFF7F2FF03BC00F053F800000948804736
:1001D00009480047FEE7FEE7FEE7FEE7FEE7FEE729
:1001E000FEE7FEE7FEE7FEE704480549054A064B41
:1001F0007047000015080008310100088800002041
:10020000880600208802002088020020704770477E
:100210007047754600F028F8AE460500694653461B
:1002200020F00700854618B020B5FFF7DDFFBDE8D8
:1002300020404FF000064FF000074FF000084FF04D
:10024000000B21F00701AC46ACE8C009ACE8C009DE
:10025000ACE8C009ACE8C0098D4670470446AFF36E
:1002600000802046FFF7ABFF0048704724000020C5
:1002700001491820ABBEFEE726000200704700BF10
:10028000FEE7704710B54FF0E020006940F0010034
:100290004FF0E0210861042000F022F890B10A48F4
:1002A000006840F2712148430849B1EB001F03DAAE
:1002B00001200749086002E0002005490860042089
:1002C00000F008F810BD000020000020400D0300E1
:1002D0001800002001490860704700001404014024
:1002E000014600200022074B1B6803EA0102054B70
:1002F00014331B680B4013B10AB1012000E0002049
:100300007047000000040140002123498279002A3F
:100310003AD00A46126803689A430B461A600A1DCF
:10032000126803689A430B1D1A60027911440A6827
:1003300003681A430A60184A0832126803689A432D
:10034000154B08331A601A1D126803689A43124B42
:100350000C331A604279102A0ED11A1F12680368F2
:100360001A430D4B08331A601A1D126803681A43AA
:10037000094B0C331A600DE00749427911440A68B1
:1003800003681A430A6005E0027911440A680368A9
:100390009A430A6070470000000401400EB5012135
:1003A000412000F06FF900F016F90420ADF80800C4
:1003B0008DF80B0002A90B4800F036F8022104204A
:1003C00000F012F80420009000208DF804000C20AA
:1003D0008DF8050001208DF806006846FFF794FFB0
:1003E0000EBD00000018014030B500228B071C0F25
:1003F0000F2303FA04F20B4B8C1053F82430934371
:10040000084C8D1044F8253023468C1053F82430C6
:100410008C07240F00FA04F42343024C8D1044F897
:10042000253030BD080001402DE9F041024600258D
:100430000026002000230024002791F803C00CF0C0
:100440000F0591F803C00CF0100CBCF1000F03D0A5
:1004500091F802C04CEA050591F800C0BCF1000F0C
:1004600031D0146800202BE04FF0010C0CFA00F39F
:10047000B1F800C00CEA03069E4220D183004FF081
:100480000F0C0CFA03F7BC4305FA03FC4CEA040416
:1004900091F803C0BCF1280F06D14FF0010C0CFA03
:1004A00000FCC2F814C00AE091F803C0BCF1480F88
:1004B00005D14FF0010C0CFA00FCC2F810C0401C32
:1004C0000828D1D31460B1F800C0BCF1FF0F34DDAF
:1004D000546800202EE000F1080C4FF0010808FAE3
:1004E0000CF3B1F800C00CEA03069E4221D1830050
:1004F0004FF00F0C0CFA03F7BC4305FA03FC4CEA6F
:10050000040491F803C0BCF1280F05D100F1080CD8
:1005100008FA0CF8C2F8148091F803C0BCF1480F37
:1005200007D100F1080C4FF0010808FA0CF8C2F8E6
:100530001080401C0828CED35460BDE8F081416192
:1005400070470161704700BFFEE7000008B5012158
:10055000402000F097F80820ADF8000004208DF846
:10056000030069460148FFF75FFF08BD001801401E
:1005700008B50121402000F085F82020ADF80000EA
:1005800010208DF8030003208DF80200694604480E
:10059000FFF74AFF20210248FFF7D3FF08BD000004
:1005A0000018014000BFFEE708B50121202000F03F
:1005B00069F8F020ADF8000010208DF8030003204A
:1005C0008DF8020069460248FFF72EFF08BD0000C3
:1005D00000140140704708B54FF4C06000F046F8C1
:1005E00008208DF8000001208DF801008DF8020030
:1005F0008DF80300684600F001F808BD70B50021D1
:1006000000230F22C47804B3154C246804F4E0647A
:10061000C4F5E064210AC1F10403CA40447804FA35
:1006200003F184781440214309010E4C0678A1554A
:10063000047804F01F050124AC4005786D11AD006D
:1006400005F1E025C5F8004109E0047804F01F0534
:100650000124AC40044D0678761145F8264070BD63
:100660000CED00E000E400E080E100E0024901431D
:10067000024A1160704700000000FA050CED00E02E
:100680007047000029B1064A92690243044B9A61FF
:1006900004E0034A92698243014B9A61704700006B
:1006A00000100240704710B500F002F810BD0000C5
:1006B0000CB50020019000903348006840F4803071
:1006C0003149086000BF3048006800F400300090F5
:1006D0000198401C0190009818B90198B0F5A06FDE
:1006E000F1D12948006800F4003010B101200090D9
:1006F00001E0002000900098012843D123480068C1
:1007000040F01000214908600846006820F003000E
:1007100008600846006840F0020008601A48406817
:10072000194948600846406848600846406840F4F7
:10073000806048600846406820F47C1048600846A5
:10074000406840F4E81048600846006840F0807057
:10075000086000BF0C48006800F000700028F9D065
:100760000948406820F0030007494860084640688F
:1007700040F00200486000BF0348406800F00C00F1
:100780000828F9D10CBD00000010024000200240F2
:1007900010B500F015FA10BD30B51A4800681A4AB5
:1007A000B0FBF2F1B1F1807F01D301201DE021F017
:1007B0007F40401E4FF0E022506150170F2200286A
:1007C00007DA13071D0E114B00F00F04241F1D55EF
:1007D00003E013071C0E0E4B1C5400BF00204FF00B
:1007E000E022906107201061002008B100BFFEE701
:1007F0004FF0E020006920F001004FF0E021086197
:1008000030BD000004000020A086010018ED00E0CB
:1008100000E400E010B51348006840F00100114901
:10082000086008464068104908400E49486008467C
:1008300000680E4908400B4908600846006820F42B
:10084000802008600846406820F4FE0048604FF4AD
:100850001F008860FFF727FF4FF000600449086021
:1008600010BD0000001002400000FFF8FFFFF6FE80
:1008700008ED00E008B501210420FFF703FFC020C8
:10088000ADF8000010208DF8030003208DF8020061
:1008900069460248FFF7C8FD08BD0000001401408A
:1008A00030B587B04FF4FA7540F2771440F2E73074
:1008B000ADF814000020ADF81000ADF81600ADF84A
:1008C000120004A9164800F029F96020ADF80000D4
:1008D0000120ADF80200ADF806500020ADF8080088
:1008E00069460F4800F064F808210D4800F0ACF8A4
:1008F0000120ADF80200ADF806406946084800F056
:10090000ADF80821064800F0FBF80121044800F08A
:1009100023F80121024800F02EF807B030BD000096
:100920000004004010B5FFF7A5FFFFF7B9FF10BDA9
:1009300010B50121064800F02AF840B105480068CA
:10094000401C044908600121014800F011F810BD65
:10095000001000400000002021B1028842F0800217
:10096000028004E002884FF67F731A4002807047CD
:10097000CA430282704721B1028842F0010202801C
:1009800004E002884FF6FE731A400280704730B5CB
:100990000246002000230024158A05EA01039589F8
:1009A00005EA010413B10CB1012000E0002030BDC4
:1009B00070B5002400220023058C4FF6FE763540EA
:1009C0000584028C8388048B4FF68F752C40B51EEE
:1009D0002C400D882C43751E2A400D892A434D88D2
:1009E0002A43144DA8420BD0134DA84208D0134DF2
:1009F000A84205D0124DA84202D0124DA84213D1F0
:100A00004FF6F7752A404D892A434FF6FB752A4069
:100A10008D882A434FF6FF652B404FF6FF552B403C
:100A20008D892B43CD892B4383800483CD88858694
:100A3000028470BD002C01400034014000400140A0
:100A400000440140004801400A460021018B4FF656
:100A5000F7731940114301837047000070B50024FB
:100A600000220023058C4FF6EF7635400584028C7A
:100A70008388048B48F6FF752C404FF6FF452C40C9
:100A80000D884FF6FF7606EA05252C434FF6DF75F5
:100A90002A400D8906EA05152A434D8806EA051500
:100AA0002A43154DA84202D0144DA8421DD14FF63D
:100AB0007F752A404D894FF6FF7606EA05152A43D1
:100AC0004FF6BF752A408D8806EA05152A434FF672
:100AD000FF352B404FF2FF752B408D8906EA8505C7
:100AE0002B43CD8906EA85052B4383800483CD887B
:100AF0000587028470BD0000002C014000340140D5
:100B00000A460021018B4FF2FF7319404FF6FF7325
:100B100003EA022319430183704700000022028880
:100B20001D4B98420ED01D4B98420BD0B0F1804F18
:100B300008D01B4B984205D01A4B984202D01A4B52
:100B4000984204D14FF68F731A404B881A43174BC3
:100B5000984207D0164B984204D04FF6FF431A40F4
:100B6000CB881A4302808B8883850B8803850A4BC8
:100B700098420BD0094B984208D00E4B984205D0B2
:100B80000D4B984202D00D4B984201D10B7A03864F
:100B90000123838270470000002C01400034014093
:100BA0000004004000080040000C0040001000401D
:100BB0000014004000400140004401400048014052
:100BC0000648006848B105480068401E03490860AF
:100BD00003480068401C0249086070471C00002060
:100BE0002000002000BFFEE7FFF7D6FDFFF7AEFCB8
:100BF000FFF7D4FBFFF7D8FCFFF7BAFCFFF792FE34
:100C000008E005480068012802D100F007F801E07B
:100C100000F016F8F5E700001800002010B51021CC
:100C20000548FFF78CFC20210348FFF78AFC0120D0
:100C30000249086010BD00000014014018000020A7
:100C400010B510210548FFF77CFC20210348FFF771
:100C500076FC00200249086010BD0000001401402D
:100C600018000020840C0008000000202400000070
:100C70006C010008A80C0008240000206406000095
:100C8000880100080000000000A24A0400000000E3
:100C9000000000000102030406070809000000002C
:080CA00000000000000000004C
:0400000508000131BD
:00000001FF
